{"abi":[{"type":"constructor","inputs":[{"name":"_wINR","type":"address","internalType":"address"}],"stateMutability":"nonpayable"},{"type":"function","name":"createPool","inputs":[{"name":"token1","type":"address","internalType":"address"},{"name":"fee","type":"uint24","internalType":"uint24"},{"name":"hook","type":"address","internalType":"address"}],"outputs":[{"name":"poolId","type":"uint256","internalType":"uint256"}],"stateMutability":"nonpayable"},{"type":"function","name":"deactivatePool","inputs":[{"name":"poolId","type":"uint256","internalType":"uint256"}],"outputs":[],"stateMutability":"nonpayable"},{"type":"function","name":"getPool","inputs":[{"name":"poolId","type":"uint256","internalType":"uint256"}],"outputs":[{"name":"","type":"tuple","internalType":"struct SimplePoolFactory.PoolInfo","components":[{"name":"token0","type":"address","internalType":"address"},{"name":"token1","type":"address","internalType":"address"},{"name":"fee","type":"uint24","internalType":"uint24"},{"name":"hook","type":"address","internalType":"address"},{"name":"active","type":"bool","internalType":"bool"}]}],"stateMutability":"view"},{"type":"function","name":"getTotalPools","inputs":[],"outputs":[{"name":"","type":"uint256","internalType":"uint256"}],"stateMutability":"view"},{"type":"function","name":"owner","inputs":[],"outputs":[{"name":"","type":"address","internalType":"address"}],"stateMutability":"view"},{"type":"function","name":"pausePoolCreation","inputs":[],"outputs":[],"stateMutability":"nonpayable"},{"type":"function","name":"paused","inputs":[],"outputs":[{"name":"","type":"bool","internalType":"bool"}],"stateMutability":"view"},{"type":"function","name":"poolCount","inputs":[],"outputs":[{"name":"","type":"uint256","internalType":"uint256"}],"stateMutability":"view"},{"type":"function","name":"poolExists","inputs":[{"name":"poolId","type":"uint256","internalType":"uint256"}],"outputs":[{"name":"","type":"bool","internalType":"bool"}],"stateMutability":"view"},{"type":"function","name":"pools","inputs":[{"name":"","type":"uint256","internalType":"uint256"}],"outputs":[{"name":"token0","type":"address","internalType":"address"},{"name":"token1","type":"address","internalType":"address"},{"name":"fee","type":"uint24","internalType":"uint24"},{"name":"hook","type":"address","internalType":"address"},{"name":"active","type":"bool","internalType":"bool"}],"stateMutability":"view"},{"type":"function","name":"renounceOwnership","inputs":[],"outputs":[],"stateMutability":"nonpayable"},{"type":"function","name":"resumePoolCreation","inputs":[],"outputs":[],"stateMutability":"nonpayable"},{"type":"function","name":"transferOwnership","inputs":[{"name":"newOwner","type":"address","internalType":"address"}],"outputs":[],"stateMutability":"nonpayable"},{"type":"function","name":"wINR","inputs":[],"outputs":[{"name":"","type":"address","internalType":"address"}],"stateMutability":"view"},{"type":"event","name":"OwnershipTransferred","inputs":[{"name":"previousOwner","type":"address","indexed":true,"internalType":"address"},{"name":"newOwner","type":"address","indexed":true,"internalType":"address"}],"anonymous":false},{"type":"event","name":"Paused","inputs":[{"name":"account","type":"address","indexed":false,"internalType":"address"}],"anonymous":false},{"type":"event","name":"PoolCreated","inputs":[{"name":"poolId","type":"uint256","indexed":true,"internalType":"uint256"},{"name":"token0","type":"address","indexed":true,"internalType":"address"},{"name":"token1","type":"address","indexed":true,"internalType":"address"},{"name":"fee","type":"uint24","indexed":false,"internalType":"uint24"},{"name":"hook","type":"address","indexed":false,"internalType":"address"}],"anonymous":false},{"type":"event","name":"Unpaused","inputs":[{"name":"account","type":"address","indexed":false,"internalType":"address"}],"anonymous":false},{"type":"error","name":"EnforcedPause","inputs":[]},{"type":"error","name":"ExpectedPause","inputs":[]},{"type":"error","name":"OwnableInvalidOwner","inputs":[{"name":"owner","type":"address","internalType":"address"}]},{"type":"error","name":"OwnableUnauthorizedAccount","inputs":[{"name":"account","type":"address","internalType":"address"}]}],"bytecode":{"object":"0x60a03461012c57601f61098e38819003918201601f19168301916001600160401b038311848410176101305780849260209460405283398101031261012c57516001600160a01b0380821680830361012c573315610114575f5460405192339082167f8be0079c531659141344cd1fd0a4f28419497f9722a3daafe3b4186f6b6457e05f80a36001600160a81b0319163360ff60a01b1916175f55156100c25750608052604051610849908161014582396080518181816101c601526105c30152f35b62461bcd60e51b815260206004820152602760248201527f53696d706c65506f6f6c466163746f72793a20496e76616c69642077494e52206044820152666164647265737360c81b6064820152608490fd5b604051631e4fbdf760e01b81525f6004820152602490fd5b5f80fd5b634e487b7160e01b5f52604160045260245ffdfe604060808152600480361015610013575f80fd5b5f3560e01c908163068bcd8d1461065f5781633b932029146105f25781633d0657ef146105af5781635c975abb1461058a5781635e1871d214610541578163715018a6146104ea5781638da5cb5b146104c35781639abd9b0514610480578163ac4afa381461041d578163adb5443e146103bf578163d3ffe67a146103a1578163e09596c214610165578163f2fde38b146100d8575063f525cb68146100b7575f80fd5b346100d4575f3660031901126100d4576020906001549051908152f35b5f80fd5b9050346100d45760203660031901126100d4576100f3610723565b906100fc6107c8565b6001600160a01b0391821692831561014f5750505f54826bffffffffffffffffffffffff60a01b8216175f55167f8be0079c531659141344cd1fd0a4f28419497f9722a3daafe3b4186f6b6457e05f80a3005b905f6024925191631e4fbdf760e01b8352820152fd5b9050346100d45760603660031901126100d457610180610723565b916024359262ffffff84168094036100d4576001600160a01b0360443581811692908390036100d45781906101b36107c8565b6101bb6107f3565b1691821561034d57817f000000000000000000000000000000000000000000000000000000000000000016918284146102f257600154955f1987146102df57508460209787937f3e919c2df97de63da5ddb5d5ef0f7f4e4252baf0a0b381efdb10c43a798dd5899360018601600155610232610739565b8781528b81019189835260028683019286845260608101948686526080820194600186528b5f526020849052848a5f209351166bffffffffffffffffffffffff60a01b845416178355846001840192511682549162ffffff60a01b905160a01b169168ffffffffffffffffff60b81b16171790550192511682549160ff60a01b9051151560a01b16916affffffffffffffffffffff60a81b1617179055825191825289820152a451908152f35b601190634e487b7160e01b5f525260245ffd5b845162461bcd60e51b8152602081880152602f60248201527f53696d706c65506f6f6c466163746f72793a2043616e6e6f742063726561746560448201526e081dd253948bddd25394881c1bdbdb608a1b6064820152608490fd5b835162461bcd60e51b8152602081870152602860248201527f53696d706c65506f6f6c466163746f72793a20496e76616c696420746f6b656e604482015267206164647265737360c01b6064820152608490fd5b82346100d4575f3660031901126100d4576020906001549051908152f35b82346100d4575f3660031901126100d45760207f62e78cea01bee320cd4e420270b5ea74000d11b0c9f74754ebdbfc544b05a258916103fc6107c8565b6104046107f3565b5f805460ff60a01b1916600160a01b17905551338152a1005b82346100d45760203660031901126100d45760a091355f52600260205260ff815f20600180851b03808254169362ffffff600260018501549401549382519687528381166020880152871c169085015281166060840152831c1615156080820152f35b82346100d45760203660031901126100d4576002913561049e6107c8565b6104ab600154821061076d565b5f90815260208390522001805460ff60a01b19169055005b82346100d4575f3660031901126100d4575f5490516001600160a01b039091168152602090f35b346100d4575f3660031901126100d4576105026107c8565b5f80546001600160a01b0319811682556001600160a01b03167f8be0079c531659141344cd1fd0a4f28419497f9722a3daafe3b4186f6b6457e08280a3005b82346100d45760203660031901126100d45760209135906001548210918261056d575b50519015158152f35b9091505f526002825260ff6002825f20015460a01c169083610564565b82346100d4575f3660031901126100d45760209060ff5f5460a01c1690519015158152f35b82346100d4575f3660031901126100d457517f00000000000000000000000000000000000000000000000000000000000000006001600160a01b03168152602090f35b82346100d4575f3660031901126100d45761060b6107c8565b5f549160ff8360a01c16156106515760ff60a01b1983165f5581513381527f5db9ee0a495bf2e6ff9c91a7834c1ba4fdd244a5e8aa4e537bd38aeae4b073aa90602090a1005b9051638dfc202b60e01b8152fd5b82346100d45760203660031901126100d45760a091355f6080610680610739565b828152826020820152828582015282606082015201526106a3600154821061076d565b5f526002602052805f206106b5610739565b600180851b039081835416938482526001840154936020830194848116865284600262ffffff9384868801948c1c16845201549660ff60806060880197848b16895201988b1c1615158852845198895251166020880152511690850152511660608301525115156080820152f35b600435906001600160a01b03821682036100d457565b6040519060a0820182811067ffffffffffffffff82111761075957604052565b634e487b7160e01b5f52604160045260245ffd5b1561077457565b60405162461bcd60e51b815260206004820152602660248201527f53696d706c65506f6f6c466163746f72793a20506f6f6c20646f6573206e6f7460448201526508195e1a5cdd60d21b6064820152608490fd5b5f546001600160a01b031633036107db57565b60405163118cdaa760e01b8152336004820152602490fd5b60ff5f5460a01c1661080157565b60405163d93c066560e01b8152600490fdfea26469706673582212208c0c8180549fbdd79754095c956d1aa1a92177685fc3031ecb81006a364369be64736f6c63430008180033","linkReferences":{}},"methodIdentifiers":{"createPool(address,uint24,address)":"e09596c2","deactivatePool(uint256)":"9abd9b05","getPool(uint256)":"068bcd8d","getTotalPools()":"d3ffe67a","owner()":"8da5cb5b","pausePoolCreation()":"adb5443e","paused()":"5c975abb","poolCount()":"f525cb68","poolExists(uint256)":"5e1871d2","pools(uint256)":"ac4afa38","renounceOwnership()":"715018a6","resumePoolCreation()":"3b932029","transferOwnership(address)":"f2fde38b","wINR()":"3d0657ef"},"id":1}