{"abi":[{"type":"constructor","inputs":[{"name":"_wINR","type":"address","internalType":"address"}],"stateMutability":"nonpayable"},{"type":"function","name":"authorizedTokens","inputs":[{"name":"","type":"address","internalType":"address"}],"outputs":[{"name":"","type":"bool","internalType":"bool"}],"stateMutability":"view"},{"type":"function","name":"blacklisted","inputs":[{"name":"","type":"address","internalType":"address"}],"outputs":[{"name":"","type":"bool","internalType":"bool"}],"stateMutability":"view"},{"type":"function","name":"conversionRates","inputs":[{"name":"","type":"address","internalType":"address"}],"outputs":[{"name":"","type":"uint256","internalType":"uint256"}],"stateMutability":"view"},{"type":"function","name":"getConversionRate","inputs":[{"name":"token","type":"address","internalType":"address"}],"outputs":[{"name":"","type":"uint256","internalType":"uint256"}],"stateMutability":"view"},{"type":"function","name":"isAuthorizedToken","inputs":[{"name":"token","type":"address","internalType":"address"}],"outputs":[{"name":"","type":"bool","internalType":"bool"}],"stateMutability":"view"},{"type":"function","name":"isBlacklisted","inputs":[{"name":"account","type":"address","internalType":"address"}],"outputs":[{"name":"","type":"bool","internalType":"bool"}],"stateMutability":"view"},{"type":"function","name":"owner","inputs":[],"outputs":[{"name":"","type":"address","internalType":"address"}],"stateMutability":"view"},{"type":"function","name":"performAMLCheck","inputs":[{"name":"sender","type":"address","internalType":"address"},{"name":"recipient","type":"address","internalType":"address"}],"outputs":[{"name":"","type":"bool","internalType":"bool"}],"stateMutability":"view"},{"type":"function","name":"renounceOwnership","inputs":[],"outputs":[],"stateMutability":"nonpayable"},{"type":"function","name":"transferOwnership","inputs":[{"name":"newOwner","type":"address","internalType":"address"}],"outputs":[],"stateMutability":"nonpayable"},{"type":"function","name":"updateAuthorizedToken","inputs":[{"name":"token","type":"address","internalType":"address"},{"name":"status","type":"bool","internalType":"bool"}],"outputs":[],"stateMutability":"nonpayable"},{"type":"function","name":"updateBlacklist","inputs":[{"name":"account","type":"address","internalType":"address"},{"name":"status","type":"bool","internalType":"bool"}],"outputs":[],"stateMutability":"nonpayable"},{"type":"function","name":"updateConversionRate","inputs":[{"name":"token","type":"address","internalType":"address"},{"name":"rate","type":"uint256","internalType":"uint256"}],"outputs":[],"stateMutability":"nonpayable"},{"type":"function","name":"wINR","inputs":[],"outputs":[{"name":"","type":"address","internalType":"address"}],"stateMutability":"view"},{"type":"event","name":"AddressBlacklisted","inputs":[{"name":"account","type":"address","indexed":true,"internalType":"address"},{"name":"status","type":"bool","indexed":false,"internalType":"bool"}],"anonymous":false},{"type":"event","name":"ConversionRateUpdated","inputs":[{"name":"token","type":"address","indexed":true,"internalType":"address"},{"name":"rate","type":"uint256","indexed":false,"internalType":"uint256"}],"anonymous":false},{"type":"event","name":"OwnershipTransferred","inputs":[{"name":"previousOwner","type":"address","indexed":true,"internalType":"address"},{"name":"newOwner","type":"address","indexed":true,"internalType":"address"}],"anonymous":false},{"type":"event","name":"SwapBlocked","inputs":[{"name":"user","type":"address","indexed":true,"internalType":"address"},{"name":"reason","type":"string","indexed":false,"internalType":"string"}],"anonymous":false},{"type":"event","name":"TokenAuthorized","inputs":[{"name":"token","type":"address","indexed":true,"internalType":"address"},{"name":"status","type":"bool","indexed":false,"internalType":"bool"}],"anonymous":false},{"type":"event","name":"TokenConverted","inputs":[{"name":"user","type":"address","indexed":true,"internalType":"address"},{"name":"fromToken","type":"address","indexed":true,"internalType":"address"},{"name":"amount","type":"uint256","indexed":false,"internalType":"uint256"},{"name":"wINRAmount","type":"uint256","indexed":false,"internalType":"uint256"}],"anonymous":false},{"type":"error","name":"OwnableInvalidOwner","inputs":[{"name":"owner","type":"address","internalType":"address"}]},{"type":"error","name":"OwnableUnauthorizedAccount","inputs":[{"name":"account","type":"address","internalType":"address"}]}],"bytecode":{"object":"0x60a03461011957601f61079938819003918201601f19168301916001600160401b0383118484101761011d5780849260209460405283398101031261011957516001600160a01b03808216808303610119573315610101575f543360018060a01b03198216175f55604051923391167f8be0079c531659141344cd1fd0a4f28419497f9722a3daafe3b4186f6b6457e05f80a3156100b3575060805260405161066790816101328239608051816104f20152f35b62461bcd60e51b815260206004820152602360248201527f53696d706c65414d4c486f6f6b3a20496e76616c69642077494e52206164647260448201526265737360e81b6064820152608490fd5b604051631e4fbdf760e01b81525f6004820152602490fd5b5f80fd5b634e487b7160e01b5f52604160045260245ffdfe60806040908082526004361015610014575f80fd5b5f3560e01c9081633d0657ef146104e0575080636d77d5b614610362578063715018a6146104895780638da5cb5b146104625780639155e0831461039e5780639bc7c58614610362578063a03b5c0414610298578063a846f46d14610220578063c210033a146101dd578063d312006014610181578063dbac26e9146101b8578063e97116b114610181578063f2fde38b146100f75763fe575a87146100b8575f80fd5b346100f35760203660031901126100f3576020906001600160a01b036100dc610521565b165f526001825260ff815f20541690519015158152f35b5f80fd5b50346100f35760203660031901126100f357610111610521565b610119610606565b6001600160a01b0390811691821561016b57505f54826bffffffffffffffffffffffff60a01b8216175f55167f8be0079c531659141344cd1fd0a4f28419497f9722a3daafe3b4186f6b6457e05f80a3005b51631e4fbdf760e01b81525f6004820152602490fd5b50346100f35760203660031901126100f3576020906001600160a01b036101a6610521565b165f5260038252805f20549051908152f35b50346100f35760203660031901126100f3576020906001600160a01b036100dc610521565b50346100f357806003193601126100f3576101f6610521565b60243591906001600160a01b03831683036100f357602092610217916105be565b90519015158152f35b50346100f3577fdcef1c68f04eb69ace296de06030dc89d1110f7d56bca60edf1b83d9f402078b602061025236610537565b9061025b610606565b6001600160a01b031693610270851515610566565b845f526002835261028f82825f209060ff801983541691151516179055565b519015158152a2005b50346100f357806003193601126100f3576102b1610521565b602435906102bd610606565b6001600160a01b0316916102d2831515610566565b8115610310577f949602d0889d7c4246b03d37cb90648978a2a2e7733aa0147eb84d2f3444e91891602091845f526003835281815f205551908152a2005b5162461bcd60e51b815260206004820152602660248201527f53696d706c65414d4c486f6f6b3a20496e76616c696420636f6e76657273696f6044820152656e207261746560d01b6064820152608490fd5b50346100f35760203660031901126100f3576020906001600160a01b03610387610521565b165f526002825260ff815f20541690519015158152f35b50346100f3576103ad36610537565b906103b6610606565b6001600160a01b031691821561040a577f97b7af35c8c05eca90f543eb78b16fdf2664d3e6c9a907286f310647d9813b7191602091845f526001835261028f82825f209060ff801983541691151516179055565b5162461bcd60e51b815260206004820152602c60248201527f53696d706c65414d4c486f6f6b3a2043616e6e6f7420626c61636b6c6973742060448201526b7a65726f206164647265737360a01b6064820152608490fd5b50346100f3575f3660031901126100f3575f5490516001600160a01b039091168152602090f35b346100f3575f3660031901126100f3576104a1610606565b5f80546001600160a01b0319811682556001600160a01b03167f8be0079c531659141344cd1fd0a4f28419497f9722a3daafe3b4186f6b6457e08280a3005b346100f3575f3660031901126100f3577f00000000000000000000000000000000000000000000000000000000000000006001600160a01b03168152602090f35b600435906001600160a01b03821682036100f357565b60409060031901126100f3576004356001600160a01b03811681036100f3579060243580151581036100f35790565b1561056d57565b60405162461bcd60e51b8152602060048201526024808201527f53696d706c65414d4c486f6f6b3a20496e76616c696420746f6b656e206164646044820152637265737360e01b6064820152608490fd5b6001600160a01b039081165f9081526001602052604090205460ff169182156105f1575b50506105ed57600190565b5f90565b909150165f5260ff60405f2054165f806105e2565b5f546001600160a01b0316330361061957565b60405163118cdaa760e01b8152336004820152602490fdfea264697066735822122016a160ff23ba7dfa56456dee4631cdb2299e1c7ca60f2b30350529f517c542ca64736f6c63430008180033","linkReferences":{}},"methodIdentifiers":{"authorizedTokens(address)":"9bc7c586","blacklisted(address)":"dbac26e9","conversionRates(address)":"e97116b1","getConversionRate(address)":"d3120060","isAuthorizedToken(address)":"6d77d5b6","isBlacklisted(address)":"fe575a87","owner()":"8da5cb5b","performAMLCheck(address,address)":"c210033a","renounceOwnership()":"715018a6","transferOwnership(address)":"f2fde38b","updateAuthorizedToken(address,bool)":"a846f46d","updateBlacklist(address,bool)":"9155e083","updateConversionRate(address,uint256)":"a03b5c04","wINR()":"3d0657ef"},"id":0}