{"abi":[{"type":"constructor","inputs":[{"name":"initialSupply","type":"uint256","internalType":"uint256"}],"stateMutability":"nonpayable"},{"type":"function","name":"MAX_SUPPLY","inputs":[],"outputs":[{"name":"","type":"uint256","internalType":"uint256"}],"stateMutability":"view"},{"type":"function","name":"allowance","inputs":[{"name":"owner","type":"address","internalType":"address"},{"name":"spender","type":"address","internalType":"address"}],"outputs":[{"name":"","type":"uint256","internalType":"uint256"}],"stateMutability":"view"},{"type":"function","name":"approve","inputs":[{"name":"spender","type":"address","internalType":"address"},{"name":"value","type":"uint256","internalType":"uint256"}],"outputs":[{"name":"","type":"bool","internalType":"bool"}],"stateMutability":"nonpayable"},{"type":"function","name":"balanceOf","inputs":[{"name":"account","type":"address","internalType":"address"}],"outputs":[{"name":"","type":"uint256","internalType":"uint256"}],"stateMutability":"view"},{"type":"function","name":"blacklisted","inputs":[{"name":"","type":"address","internalType":"address"}],"outputs":[{"name":"","type":"bool","internalType":"bool"}],"stateMutability":"view"},{"type":"function","name":"burn","inputs":[{"name":"amount","type":"uint256","internalType":"uint256"}],"outputs":[],"stateMutability":"nonpayable"},{"type":"function","name":"burnFrom","inputs":[{"name":"from","type":"address","internalType":"address"},{"name":"amount","type":"uint256","internalType":"uint256"}],"outputs":[],"stateMutability":"nonpayable"},{"type":"function","name":"decimals","inputs":[],"outputs":[{"name":"","type":"uint8","internalType":"uint8"}],"stateMutability":"pure"},{"type":"function","name":"getMaxSupply","inputs":[],"outputs":[{"name":"","type":"uint256","internalType":"uint256"}],"stateMutability":"pure"},{"type":"function","name":"getRemainingMintableSupply","inputs":[],"outputs":[{"name":"","type":"uint256","internalType":"uint256"}],"stateMutability":"view"},{"type":"function","name":"isBlacklisted","inputs":[{"name":"account","type":"address","internalType":"address"}],"outputs":[{"name":"","type":"bool","internalType":"bool"}],"stateMutability":"view"},{"type":"function","name":"mint","inputs":[{"name":"to","type":"address","internalType":"address"},{"name":"amount","type":"uint256","internalType":"uint256"}],"outputs":[],"stateMutability":"nonpayable"},{"type":"function","name":"name","inputs":[],"outputs":[{"name":"","type":"string","internalType":"string"}],"stateMutability":"view"},{"type":"function","name":"owner","inputs":[],"outputs":[{"name":"","type":"address","internalType":"address"}],"stateMutability":"view"},{"type":"function","name":"pause","inputs":[],"outputs":[],"stateMutability":"nonpayable"},{"type":"function","name":"paused","inputs":[],"outputs":[{"name":"","type":"bool","internalType":"bool"}],"stateMutability":"view"},{"type":"function","name":"renounceOwnership","inputs":[],"outputs":[],"stateMutability":"nonpayable"},{"type":"function","name":"symbol","inputs":[],"outputs":[{"name":"","type":"string","internalType":"string"}],"stateMutability":"view"},{"type":"function","name":"totalSupply","inputs":[],"outputs":[{"name":"","type":"uint256","internalType":"uint256"}],"stateMutability":"view"},{"type":"function","name":"transfer","inputs":[{"name":"to","type":"address","internalType":"address"},{"name":"value","type":"uint256","internalType":"uint256"}],"outputs":[{"name":"","type":"bool","internalType":"bool"}],"stateMutability":"nonpayable"},{"type":"function","name":"transferFrom","inputs":[{"name":"from","type":"address","internalType":"address"},{"name":"to","type":"address","internalType":"address"},{"name":"value","type":"uint256","internalType":"uint256"}],"outputs":[{"name":"","type":"bool","internalType":"bool"}],"stateMutability":"nonpayable"},{"type":"function","name":"transferOwnership","inputs":[{"name":"newOwner","type":"address","internalType":"address"}],"outputs":[],"stateMutability":"nonpayable"},{"type":"function","name":"unpause","inputs":[],"outputs":[],"stateMutability":"nonpayable"},{"type":"function","name":"updateBlacklist","inputs":[{"name":"account","type":"address","internalType":"address"},{"name":"status","type":"bool","internalType":"bool"}],"outputs":[],"stateMutability":"nonpayable"},{"type":"event","name":"AddressBlacklisted","inputs":[{"name":"account","type":"address","indexed":true,"internalType":"address"},{"name":"status","type":"bool","indexed":false,"internalType":"bool"}],"anonymous":false},{"type":"event","name":"Approval","inputs":[{"name":"owner","type":"address","indexed":true,"internalType":"address"},{"name":"spender","type":"address","indexed":true,"internalType":"address"},{"name":"value","type":"uint256","indexed":false,"internalType":"uint256"}],"anonymous":false},{"type":"event","name":"OwnershipTransferred","inputs":[{"name":"previousOwner","type":"address","indexed":true,"internalType":"address"},{"name":"newOwner","type":"address","indexed":true,"internalType":"address"}],"anonymous":false},{"type":"event","name":"Paused","inputs":[{"name":"account","type":"address","indexed":false,"internalType":"address"}],"anonymous":false},{"type":"event","name":"TokensBurned","inputs":[{"name":"from","type":"address","indexed":true,"internalType":"address"},{"name":"amount","type":"uint256","indexed":false,"internalType":"uint256"}],"anonymous":false},{"type":"event","name":"TokensMinted","inputs":[{"name":"to","type":"address","indexed":true,"internalType":"address"},{"name":"amount","type":"uint256","indexed":false,"internalType":"uint256"}],"anonymous":false},{"type":"event","name":"Transfer","inputs":[{"name":"from","type":"address","indexed":true,"internalType":"address"},{"name":"to","type":"address","indexed":true,"internalType":"address"},{"name":"value","type":"uint256","indexed":false,"internalType":"uint256"}],"anonymous":false},{"type":"event","name":"Unpaused","inputs":[{"name":"account","type":"address","indexed":false,"internalType":"address"}],"anonymous":false},{"type":"error","name":"ERC20InsufficientAllowance","inputs":[{"name":"spender","type":"address","internalType":"address"},{"name":"allowance","type":"uint256","internalType":"uint256"},{"name":"needed","type":"uint256","internalType":"uint256"}]},{"type":"error","name":"ERC20InsufficientBalance","inputs":[{"name":"sender","type":"address","internalType":"address"},{"name":"balance","type":"uint256","internalType":"uint256"},{"name":"needed","type":"uint256","internalType":"uint256"}]},{"type":"error","name":"ERC20InvalidApprover","inputs":[{"name":"approver","type":"address","internalType":"address"}]},{"type":"error","name":"ERC20InvalidReceiver","inputs":[{"name":"receiver","type":"address","internalType":"address"}]},{"type":"error","name":"ERC20InvalidSender","inputs":[{"name":"sender","type":"address","internalType":"address"}]},{"type":"error","name":"ERC20InvalidSpender","inputs":[{"name":"spender","type":"address","internalType":"address"}]},{"type":"error","name":"EnforcedPause","inputs":[]},{"type":"error","name":"ExpectedPause","inputs":[]},{"type":"error","name":"OwnableInvalidOwner","inputs":[{"name":"owner","type":"address","internalType":"address"}]},{"type":"error","name":"OwnableUnauthorizedAccount","inputs":[{"name":"account","type":"address","internalType":"address"}]}],"bytecode":{"object":"0x608034620004f857601f6200157b38819003828101601f199081168501946001600160401b03949093909285871185881017620004fc5780859260409889528339602094859181010312620004f85751936200005a62000510565b601481527f5772617070656420496e6469616e205275706565000000000000000000000000858201526200008d62000510565b90600494858352633ba4a72960e11b8784015281519284841162000407576003938454936001948581811c91168015620004ed575b8b821014620004da5790818584931162000487575b508a9085831160011462000426575f926200041a575b50505f1982871b1c191690841b1784555b8051948511620004075786548381811c91168015620003fc575b89821014620003e957828111620003a1575b50879185116001146200033c57849550908492915f9562000330575b50501b925f19911b1c19161781555b33156200031a57600554845190336001600160a01b0382167f8be0079c531659141344cd1fd0a4f28419497f9722a3daafe3b4186f6b6457e05f80a36001600160a81b0319163360ff60a01b1916176005819055906b033b2e3c9fd0803ce80000008511620002cd575060a01c60ff166200028d57335f526006825260ff845f2054166200024c57600254908382018092116200023957505f917fddf252ad1be2c89b69c2b068fc378daa952ba7f163c4a11628f55a4df523b3ef9160025533835282815284832084815401905584519384523393a35161104a9081620005318239f35b601190634e487b7160e01b5f525260245ffd5b60649184519162461bcd60e51b8352820152601e60248201527f57494e523a20526563697069656e7420697320626c61636b6c697374656400006044820152fd5b8160649285519262461bcd60e51b845283015260248201527f57494e523a20546f6b656e207472616e736665727320617265207061757365646044820152fd5b62461bcd60e51b81528281018490526024808201527f57494e523a20496e697469616c20737570706c792065786365656473206d6178604482015263696d756d60e01b6064820152608490fd5b6024905f855191631e4fbdf760e01b8352820152fd5b015193505f8062000146565b929194841692865f5284885f20945f5b8a898383106200038957505050106200036f575b50505050811b01815562000155565b01519060f8845f19921b161c191690555f80808062000360565b8686015189559097019694850194889350016200034c565b875f52885f208380880160051c8201928b8910620003df575b0160051c019084905b828110620003d35750506200012a565b5f8155018490620003c3565b92508192620003ba565b602288634e487b7160e01b5f525260245ffd5b90607f169062000118565b604187634e487b7160e01b5f525260245ffd5b015190505f80620000ed565b908987941691885f528c5f20928d5f905b8282106200046f575050841162000457575b505050811b018455620000fe565b01515f1983891b60f8161c191690555f808062000449565b8385015186558a979095019493840193018e62000437565b909150865f528a5f208580850160051c8201928d8610620004d0575b918891869594930160051c01915b828110620004c1575050620000d7565b5f8155859450889101620004b1565b92508192620004a3565b60228a634e487b7160e01b5f525260245ffd5b90607f1690620000c2565b5f80fd5b634e487b7160e01b5f52604160045260245ffd5b60408051919082016001600160401b03811183821017620004fc5760405256fe6080604090808252600480361015610015575f80fd5b5f3560e01c91826306fdde0314610bab57508163095ea7b314610b0357816318160ddd14610ae557816323b872dd146109f3578163313ce567146109d857816332cb6b0c146106845781633f4ba83a1461096957816340c10f19146106f557816342966c68146106aa5781634c0f38c2146106845781635c975abb1461065e5781635cf32b371461061557816370a08231146105df578163715018a61461058457816379cc6790146105215781638456cb59146104ad5781638da5cb5b146104855781639155e083146103b357816395d89b4114610294578163a9059cbb14610264578163dbac26e91461023f578163dd62ed3e146101f6578163f2fde38b14610167575063fe575a8714610128575f80fd5b34610163576020366003190112610163576020906001600160a01b0361014c610cca565b165f526006825260ff815f20541690519015158152f35b5f80fd5b90503461016357602036600319011261016357610182610cca565b9061018b610eea565b6001600160a01b039182169283156101e0575050600554826bffffffffffffffffffffffff60a01b821617600555167f8be0079c531659141344cd1fd0a4f28419497f9722a3daafe3b4186f6b6457e05f80a3005b905f6024925191631e4fbdf760e01b8352820152fd5b8234610163578060031936011261016357602090610212610cca565b61021a610ce0565b9060018060a01b038091165f5260018452825f2091165f528252805f20549051908152f35b8234610163576020366003190112610163576020906001600160a01b0361014c610cca565b823461016357806003193601126101635760209061028d610283610cca565b6024359033610d17565b5160018152f35b8234610163575f366003190112610163578051905f835460018160011c90600183169283156103a9575b60209384841081146103965783885290811561037a5750600114610326575b505050829003601f01601f191682019267ffffffffffffffff841183851017610313575082918261030f925282610c83565b0390f35b604190634e487b7160e01b5f525260245ffd5b5f878152929350837f8a35acfbc15ff81a39ae7d344fd709f28e8600b4aa8c65c6b64bfe7fe36bd19b5b83851061036657505050508301018480806102dd565b805488860183015293019284908201610350565b60ff1916878501525050151560051b84010190508480806102dd565b602289634e487b7160e01b5f525260245ffd5b91607f16916102be565b82346101635780600319360112610163576103cc610cca565b9060243591821515809303610163576103e3610eea565b6001600160a01b031692831561043757507f97b7af35c8c05eca90f543eb78b16fdf2664d3e6c9a907286f310647d9813b7191602091845f5260068352805f2060ff1981541660ff841617905551908152a2005b6020608492519162461bcd60e51b8352820152602360248201527f57494e523a2043616e6e6f7420626c61636b6c697374207a65726f206164647260448201526265737360e81b6064820152fd5b8234610163575f3660031901126101635760055490516001600160a01b039091168152602090f35b8234610163575f366003190112610163576104c6610eea565b6005549160ff8360a01c166105135760ff60a01b198316600160a01b1760055581513381527f62e78cea01bee320cd4e420270b5ea74000d11b0c9f74754ebdbfc544b05a25890602090a1005b905163d93c066560e01b8152fd5b82346101635780600319360112610163577ffd38818f5291bf0bb3a2a48aadc06ba8757865d1dabd804585338aab3009dcb6602061055d610cca565b60243593610569610eea565b6105738583610f16565b519384526001600160a01b031692a2005b34610163575f3660031901126101635761059c610eea565b600580546001600160a01b031981169091555f906001600160a01b03167f8be0079c531659141344cd1fd0a4f28419497f9722a3daafe3b4186f6b6457e08280a3005b8234610163576020366003190112610163576020906001600160a01b03610604610cca565b165f525f8252805f20549051908152f35b8234610163575f36600319011261016357600254906b033b2e3c9fd0803ce800000091820391821161064b576020925051908152f35b601183634e487b7160e01b5f525260245ffd5b8234610163575f3660031901126101635760209060ff60055460a01c1690519015158152f35b8234610163575f36600319011261016357602090516b033b2e3c9fd0803ce80000008152f35b9050346101635760203660031901126101635735906106c98233610f16565b519081527ffd38818f5291bf0bb3a2a48aadc06ba8757865d1dabd804585338aab3009dcb660203392a2005b90503461016357816003193601126101635761070f610cca565b60249081359061071d610eea565b600254906b033b2e3c9fd0803ce80000006107388484610cf6565b11610915576001600160a01b03169384156108c957845f526020936006855260ff875f2054166108765760ff60055460a01c1661083557855f526006855260ff875f2054166107f3575050936107b0827f3f2c9d57c068687834f0de942a9babb9e5acab57d516d3480a3c16ee165a42739596610cf6565b600255845f525f8352805f20828154019055845f7fddf252ad1be2c89b69c2b068fc378daa952ba7f163c4a11628f55a4df523b3ef858451868152a351908152a2005b865162461bcd60e51b8152918201859052601e908201527f57494e523a20526563697069656e7420697320626c61636b6c697374656400006044820152606490fd5b865162461bcd60e51b815291820185905281018490527f57494e523a20546f6b656e207472616e736665727320617265207061757365646044820152606490fd5b865162461bcd60e51b81529182018590526028908201527f57494e523a2043616e6e6f74206d696e7420746f20626c61636b6c6973746564604482015267206164647265737360c01b6064820152608490fd5b608490602185602089519362461bcd60e51b85528401528201527f57494e523a2043616e6e6f74206d696e7420746f207a65726f206164647265736044820152607360f81b6064820152fd5b855162461bcd60e51b81526020818701526029818601527f57494e523a204d696e74696e6720776f756c6420657863656564206d6178696d604482015268756d20737570706c7960b81b6064820152608490fd5b8234610163575f36600319011261016357610982610eea565b6005549160ff8360a01c16156109ca5760ff60a01b19831660055581513381527f5db9ee0a495bf2e6ff9c91a7834c1ba4fdd244a5e8aa4e537bd38aeae4b073aa90602090a1005b9051638dfc202b60e01b8152fd5b8234610163575f366003190112610163576020905160128152f35b90503461016357606036600319011261016357610a0e610cca565b610a16610ce0565b906044359260018060a01b038216805f526001602052855f20335f52602052855f2054915f198303610a51575b60208761028d888888610d17565b858310610ab9578115610aa3573315610a8d57505f9081526001602090815286822033835281529086902091859003909155829061028d610a43565b6024905f885191634a1406b160e11b8352820152fd5b6024905f88519163e602df0560e01b8352820152fd5b8651637dc7a0d960e11b8152339181019182526020820193909352604081018690528291506060010390fd5b8234610163575f366003190112610163576020906002549051908152f35b8234610163578060031936011261016357610b1c610cca565b602435903315610b95576001600160a01b0316908115610b7f5760209350335f5260018452825f20825f52845280835f205582519081527f8c5be1e5ebec7d5bd14f71427d1e84f3dd0314c0f7b2291e5b200ac8c7c3b925843392a35160018152f35b8251634a1406b160e11b81525f81860152602490fd5b825163e602df0560e01b81525f81860152602490fd5b8334610163575f366003190112610163575f60035460018160011c9060018316928315610c79575b60209384841081146103965783885290811561037a5750600114610c2357505050829003601f01601f191682019267ffffffffffffffff841183851017610313575082918261030f925282610c83565b60035f908152929350837fc2575a0e9e593c00f959f8c92f12db2869c3395a3b0502d05e2516446f71f85b5b838510610c6557505050508301018480806102dd565b805488860183015293019284908201610c4f565b91607f1691610bd3565b602080825282518183018190529093925f5b828110610cb657505060409293505f838284010152601f8019910116010190565b818101860151848201604001528501610c95565b600435906001600160a01b038216820361016357565b602435906001600160a01b038216820361016357565b91908201809211610d0357565b634e487b7160e01b5f52601160045260245ffd5b9291906001600160a01b03808516918215610ed25716918215610eba5760ff60055460a01c16610e7657815f5260209060068252604060ff815f205416610e3357845f526006835260ff815f205416610df057835f525f8352805f205496828810610dc1575081849596977fddf252ad1be2c89b69c2b068fc378daa952ba7f163c4a11628f55a4df523b3ef955f525f855203815f2055855f52805f2082815401905551908152a3565b905163391434e360e21b81526001600160a01b0390911660048201526024810187905260448101829052606490fd5b5162461bcd60e51b815260048101839052601e60248201527f57494e523a20526563697069656e7420697320626c61636b6c697374656400006044820152606490fd5b5162461bcd60e51b815260048101839052601b60248201527f57494e523a2053656e64657220697320626c61636b6c697374656400000000006044820152606490fd5b606460405162461bcd60e51b815260206004820152602060248201527f57494e523a20546f6b656e207472616e736665727320617265207061757365646044820152fd5b60405163ec442f0560e01b81525f6004820152602490fd5b604051634b637e8f60e11b81525f6004820152602490fd5b6005546001600160a01b03163303610efe57565b60405163118cdaa760e01b8152336004820152602490fd5b91906001600160a01b038316908115610ed25760ff60055460a01c16610e7657815f526006602052604060ff815f205416610fd157825f525f602052805f205494828610610fa25750816020917fddf252ad1be2c89b69c2b068fc378daa952ba7f163c4a11628f55a4df523b3ef935f96978688528785520381872055816002540360025551908152a3565b905163391434e360e21b81526001600160a01b0390911660048201526024810185905260448101829052606490fd5b5162461bcd60e51b815260206004820152601b60248201527f57494e523a2053656e64657220697320626c61636b6c697374656400000000006044820152606490fdfea264697066735822122005630b94a51fa9d3071a6108938c095367aac9bcac8f88b08325dd2adc57f80464736f6c63430008180033","linkReferences":{}},"methodIdentifiers":{"MAX_SUPPLY()":"32cb6b0c","allowance(address,address)":"dd62ed3e","approve(address,uint256)":"095ea7b3","balanceOf(address)":"70a08231","blacklisted(address)":"dbac26e9","burn(uint256)":"42966c68","burnFrom(address,uint256)":"79cc6790","decimals()":"313ce567","getMaxSupply()":"4c0f38c2","getRemainingMintableSupply()":"5cf32b37","isBlacklisted(address)":"fe575a87","mint(address,uint256)":"40c10f19","name()":"06fdde03","owner()":"8da5cb5b","pause()":"8456cb59","paused()":"5c975abb","renounceOwnership()":"715018a6","symbol()":"95d89b41","totalSupply()":"18160ddd","transfer(address,uint256)":"a9059cbb","transferFrom(address,address,uint256)":"23b872dd","transferOwnership(address)":"f2fde38b","unpause()":"3f4ba83a","updateBlacklist(address,bool)":"9155e083"},"id":3}