{"abi":[{"type":"constructor","inputs":[{"name":"_wINR","type":"address","internalType":"address"}],"stateMutability":"nonpayable"},{"type":"function","name":"authorizedTokens","inputs":[{"name":"","type":"address","internalType":"address"}],"outputs":[{"name":"","type":"bool","internalType":"bool"}],"stateMutability":"view"},{"type":"function","name":"conversionRates","inputs":[{"name":"","type":"address","internalType":"address"}],"outputs":[{"name":"","type":"uint256","internalType":"uint256"}],"stateMutability":"view"},{"type":"function","name":"convertToWINR","inputs":[{"name":"token","type":"address","internalType":"address"},{"name":"amount","type":"uint256","internalType":"uint256"}],"outputs":[{"name":"wINRAmount","type":"uint256","internalType":"uint256"}],"stateMutability":"nonpayable"},{"type":"function","name":"dailyConversionLimits","inputs":[{"name":"","type":"address","internalType":"address"},{"name":"","type":"address","internalType":"address"}],"outputs":[{"name":"","type":"uint256","internalType":"uint256"}],"stateMutability":"view"},{"type":"function","name":"dailyConversionUsed","inputs":[{"name":"","type":"address","internalType":"address"},{"name":"","type":"address","internalType":"address"}],"outputs":[{"name":"","type":"uint256","internalType":"uint256"}],"stateMutability":"view"},{"type":"function","name":"emergencyWithdraw","inputs":[{"name":"token","type":"address","internalType":"address"},{"name":"amount","type":"uint256","internalType":"uint256"}],"outputs":[],"stateMutability":"nonpayable"},{"type":"function","name":"getConversionQuote","inputs":[{"name":"token","type":"address","internalType":"address"},{"name":"amount","type":"uint256","internalType":"uint256"}],"outputs":[{"name":"wINRAmount","type":"uint256","internalType":"uint256"}],"stateMutability":"view"},{"type":"function","name":"getConversionRate","inputs":[{"name":"token","type":"address","internalType":"address"}],"outputs":[{"name":"","type":"uint256","internalType":"uint256"}],"stateMutability":"view"},{"type":"function","name":"getRemainingDailyLimit","inputs":[{"name":"user","type":"address","internalType":"address"},{"name":"token","type":"address","internalType":"address"}],"outputs":[{"name":"","type":"uint256","internalType":"uint256"}],"stateMutability":"view"},{"type":"function","name":"isAuthorizedToken","inputs":[{"name":"token","type":"address","internalType":"address"}],"outputs":[{"name":"","type":"bool","internalType":"bool"}],"stateMutability":"view"},{"type":"function","name":"lastConversionDay","inputs":[{"name":"","type":"address","internalType":"address"},{"name":"","type":"address","internalType":"address"}],"outputs":[{"name":"","type":"uint256","internalType":"uint256"}],"stateMutability":"view"},{"type":"function","name":"maximumConversionAmounts","inputs":[{"name":"","type":"address","internalType":"address"}],"outputs":[{"name":"","type":"uint256","internalType":"uint256"}],"stateMutability":"view"},{"type":"function","name":"minimumConversionAmounts","inputs":[{"name":"","type":"address","internalType":"address"}],"outputs":[{"name":"","type":"uint256","internalType":"uint256"}],"stateMutability":"view"},{"type":"function","name":"owner","inputs":[],"outputs":[{"name":"","type":"address","internalType":"address"}],"stateMutability":"view"},{"type":"function","name":"pause","inputs":[],"outputs":[],"stateMutability":"nonpayable"},{"type":"function","name":"paused","inputs":[],"outputs":[{"name":"","type":"bool","internalType":"bool"}],"stateMutability":"view"},{"type":"function","name":"renounceOwnership","inputs":[],"outputs":[],"stateMutability":"nonpayable"},{"type":"function","name":"setDailyConversionLimit","inputs":[{"name":"user","type":"address","internalType":"address"},{"name":"token","type":"address","internalType":"address"},{"name":"limit","type":"uint256","internalType":"uint256"}],"outputs":[],"stateMutability":"nonpayable"},{"type":"function","name":"transferOwnership","inputs":[{"name":"newOwner","type":"address","internalType":"address"}],"outputs":[],"stateMutability":"nonpayable"},{"type":"function","name":"unpause","inputs":[],"outputs":[],"stateMutability":"nonpayable"},{"type":"function","name":"updateAuthorizedToken","inputs":[{"name":"token","type":"address","internalType":"address"},{"name":"status","type":"bool","internalType":"bool"}],"outputs":[],"stateMutability":"nonpayable"},{"type":"function","name":"updateConversionRate","inputs":[{"name":"token","type":"address","internalType":"address"},{"name":"rate","type":"uint256","internalType":"uint256"}],"outputs":[],"stateMutability":"nonpayable"},{"type":"function","name":"updateMaximumConversionAmount","inputs":[{"name":"token","type":"address","internalType":"address"},{"name":"amount","type":"uint256","internalType":"uint256"}],"outputs":[],"stateMutability":"nonpayable"},{"type":"function","name":"updateMinimumConversionAmount","inputs":[{"name":"token","type":"address","internalType":"address"},{"name":"amount","type":"uint256","internalType":"uint256"}],"outputs":[],"stateMutability":"nonpayable"},{"type":"function","name":"wINR","inputs":[],"outputs":[{"name":"","type":"address","internalType":"address"}],"stateMutability":"view"},{"type":"event","name":"ConversionLimitUpdated","inputs":[{"name":"token","type":"address","indexed":true,"internalType":"address"},{"name":"limit","type":"uint256","indexed":false,"internalType":"uint256"}],"anonymous":false},{"type":"event","name":"ConversionRateUpdated","inputs":[{"name":"token","type":"address","indexed":true,"internalType":"address"},{"name":"rate","type":"uint256","indexed":false,"internalType":"uint256"}],"anonymous":false},{"type":"event","name":"MaximumConversionAmountUpdated","inputs":[{"name":"token","type":"address","indexed":true,"internalType":"address"},{"name":"amount","type":"uint256","indexed":false,"internalType":"uint256"}],"anonymous":false},{"type":"event","name":"MinimumConversionAmountUpdated","inputs":[{"name":"token","type":"address","indexed":true,"internalType":"address"},{"name":"amount","type":"uint256","indexed":false,"internalType":"uint256"}],"anonymous":false},{"type":"event","name":"OwnershipTransferred","inputs":[{"name":"previousOwner","type":"address","indexed":true,"internalType":"address"},{"name":"newOwner","type":"address","indexed":true,"internalType":"address"}],"anonymous":false},{"type":"event","name":"Paused","inputs":[{"name":"account","type":"address","indexed":false,"internalType":"address"}],"anonymous":false},{"type":"event","name":"TokenAuthorized","inputs":[{"name":"token","type":"address","indexed":true,"internalType":"address"},{"name":"status","type":"bool","indexed":false,"internalType":"bool"}],"anonymous":false},{"type":"event","name":"TokensConverted","inputs":[{"name":"user","type":"address","indexed":true,"internalType":"address"},{"name":"fromToken","type":"address","indexed":true,"internalType":"address"},{"name":"fromAmount","type":"uint256","indexed":false,"internalType":"uint256"},{"name":"wINRAmount","type":"uint256","indexed":false,"internalType":"uint256"},{"name":"timestamp","type":"uint256","indexed":false,"internalType":"uint256"}],"anonymous":false},{"type":"event","name":"Unpaused","inputs":[{"name":"account","type":"address","indexed":false,"internalType":"address"}],"anonymous":false},{"type":"error","name":"AddressEmptyCode","inputs":[{"name":"target","type":"address","internalType":"address"}]},{"type":"error","name":"AddressInsufficientBalance","inputs":[{"name":"account","type":"address","internalType":"address"}]},{"type":"error","name":"EnforcedPause","inputs":[]},{"type":"error","name":"ExpectedPause","inputs":[]},{"type":"error","name":"FailedInnerCall","inputs":[]},{"type":"error","name":"OwnableInvalidOwner","inputs":[{"name":"owner","type":"address","internalType":"address"}]},{"type":"error","name":"OwnableUnauthorizedAccount","inputs":[{"name":"account","type":"address","internalType":"address"}]},{"type":"error","name":"ReentrancyGuardReentrantCall","inputs":[]},{"type":"error","name":"SafeERC20FailedOperation","inputs":[{"name":"token","type":"address","internalType":"address"}]}],"bytecode":{"object":"0x60a03461013757601f6111ed38819003918201601f19168301916001600160401b0383118484101761013b5780849260209460405283398101031261013757516001600160a01b0380821680830361013757331561011f575f543360018060a01b03198216175f55604051923391167f8be0079c531659141344cd1fd0a4f28419497f9722a3daafe3b4186f6b6457e05f80a36001805560ff1960025416600255156100c8575060805260405161109d908161015082396080518181816109650152610cbd0152f35b62461bcd60e51b815260206004820152602c60248201527f546f6b656e436f6e76657273696f6e536572766963653a20496e76616c69642060448201526b77494e52206164647265737360a01b6064820152608490fd5b604051631e4fbdf760e01b81525f6004820152602490fd5b5f80fd5b634e487b7160e01b5f52604160045260245ffdfe608060409080825260049081361015610016575f80fd5b5f3560e01c9081633d0657ef14610cab575080633f4ba83a14610c435780634da8c8f0146108195780635afd31be146107d05780635c975abb146107ad57806362cf677f1461073d5780636d77d5b61461056c578063715018a6146106e657806372255ebf146106b95780638456cb59146106605780638da5cb5b146106395780639506d66c146105f057806395ccea67146105a85780639bc7c5861461056c5780639e5a0031146104fc578063a03b5c041461043c578063a846f46d146103b5578063a9009893146102de578063aee3dfdf146102af578063cc6374bd14610266578063d3120060146101c2578063da5abe2f1461022f578063e13f46d9146101f8578063e97116b1146101c25763f2fde38b14610133575f80fd5b346101be5760203660031901126101be5761014c610cec565b90610155610e61565b6001600160a01b039182169283156101a85750505f54826bffffffffffffffffffffffff60a01b8216175f55167f8be0079c531659141344cd1fd0a4f28419497f9722a3daafe3b4186f6b6457e05f80a3005b905f6024925191631e4fbdf760e01b8352820152fd5b5f80fd5b5090346101be5760203660031901126101be576020916001600160a01b036101e8610cec565b165f528252805f20549051908152f35b82346101be5760203660031901126101be576020906001600160a01b0361021d610cec565b165f5260068252805f20549051908152f35b82346101be5760203660031901126101be576020906001600160a01b03610254610cec565b165f5260058252805f20549051908152f35b82346101be57806003193601126101be57602090610282610cec565b61028a610d02565b9060018060a01b038091165f5260078452825f2091165f528252805f20549051908152f35b82346101be57806003193601126101be576020906102d76102ce610cec565b60243590610e04565b9051908152f35b5090346101be5760603660031901126101be576102f9610cec565b90610302610d02565b916044359261030f610e61565b6001600160a01b039182169485156103705750917fb092a208f3a721f7cd89299c185f75ab0c5815e0a7a0bb41ce250016702ef31b93916020931694610356861515610d3f565b5f5260078352805f20855f52835281815f205551908152a2005b608490602085519162461bcd60e51b8352820152602c60248201525f8051602061104883398151915260448201526b75736572206164647265737360a01b6064820152fd5b82346101be57806003193601126101be576103ce610cec565b602435908115158092036101be577fdcef1c68f04eb69ace296de06030dc89d1110f7d56bca60edf1b83d9f402078b91602091610409610e61565b6001600160a01b03169361041e851515610d3f565b845f5260038352805f2060ff1981541660ff841617905551908152a2005b5090346101be57806003193601126101be57610456610cec565b9060243591610463610e61565b6001600160a01b031692610478841515610d3f565b82156104b557916020917f949602d0889d7c4246b03d37cb90648978a2a2e7733aa0147eb84d2f3444e91893855f52835281815f205551908152a2005b6020608492519162461bcd60e51b8352820152602f60248201525f8051602061104883398151915260448201526e636f6e76657273696f6e207261746560881b6064820152fd5b82346101be57806003193601126101be577f683ac2092ba836a9eeab5d526d65e3ad04b043becce64a295979a07d974d44b96020610538610cec565b60243590610544610e61565b6001600160a01b031693610559851515610d3f565b845f526006835281815f205551908152a2005b82346101be5760203660031901126101be576020906001600160a01b03610591610cec565b165f526003825260ff815f20541690519015158152f35b82346101be573660031901126101be576105ee6105c3610cec565b6105cb610e61565b6001600160a01b039081166105e1811515610d3f565b602435915f541690610eb7565b005b82346101be57806003193601126101be5760209061060c610cec565b610614610d02565b9060018060a01b038091165f5260088452825f2091165f528252805f20549051908152f35b82346101be575f3660031901126101be575f5490516001600160a01b039091168152602090f35b82346101be575f3660031901126101be5760207f62e78cea01bee320cd4e420270b5ea74000d11b0c9f74754ebdbfc544b05a2589161069d610e61565b6106a5610e8c565b600160ff19600254161760025551338152a1005b82346101be57806003193601126101be576020906102d76106d8610cec565b6106e0610d02565b90610d8e565b346101be575f3660031901126101be576106fe610e61565b5f80546001600160a01b0319811682556001600160a01b03167f8be0079c531659141344cd1fd0a4f28419497f9722a3daafe3b4186f6b6457e08280a3005b82346101be57806003193601126101be577f61677f343b98f4b6fc2e5a4d1f1564d5dbca8abe6db22dc133263fb7d1edf1146020610779610cec565b60243590610785610e61565b6001600160a01b03169361079a851515610d3f565b845f526005835281815f205551908152a2005b82346101be575f3660031901126101be5760209060ff6002541690519015158152f35b82346101be57806003193601126101be576020906107ec610cec565b6107f4610d02565b9060018060a01b038091165f5260098452825f2091165f528252805f20549051908152f35b50346101be57816003193601126101be57610832610cec565b916024928335600260015414610c3457600260015561084f610e8c565b60018060a01b0380921691825f526020956003875260ff855f20541615610bde578215610ba157835f5260058752845f20548310610b4b57835f5260068752845f20548311610af357620151804204335f5260098852855f20855f52885280865f205403610ac6575b50335f5260088752845f20845f5287526108d583865f2054610eaa565b335f5260078852855f20855f528852855f205410610a5f57835f52858752670de0b6b3a7640000610909865f205485610d18565b049586156109f95785516323b872dd60e01b898201523383820152306044820152606480820186905281529160a083019167ffffffffffffffff8311848410176109e857505091610961879261098a94885286610f1d565b33907f000000000000000000000000000000000000000000000000000000000000000016610eb7565b335f5260088552825f20825f528552825f206109a7828254610eaa565b90558251908152838582015242838201527faa1d49681919d4d7d4891da4a63da9af361b1f9ec48f1547b6d89e70a51039c660603392a36001805551908152f35b604190634e487b7160e01b5f52525ffd5b60376084928988519362461bcd60e51b85528401528201527f546f6b656e436f6e76657273696f6e536572766963653a20436f6e766572736960448201527f6f6e20726573756c747320696e207a65726f2077494e520000000000000000006064820152fd5b8560376084928988519362461bcd60e51b85528401528201527f546f6b656e436f6e76657273696f6e536572766963653a204461696c7920636f60448201527f6e76657273696f6e206c696d69742065786365656465640000000000000000006064820152fd5b335f5260088852855f20855f5288525f86812055335f5260098852855f20855f528852855f20555f6108b8565b85602e6084928988519362461bcd60e51b85528401528201527f546f6b656e436f6e76657273696f6e536572766963653a20416d6f756e74206560448201526d786365656473206d6178696d756d60901b6064820152fd5b85602c6084928988519362461bcd60e51b85528401528201527f546f6b656e436f6e76657273696f6e536572766963653a20416d6f756e74206260448201526b656c6f77206d696e696d756d60a01b6064820152fd5b8560266084928988519362461bcd60e51b85528401528201525f80516020611048833981519152604482015265185b5bdd5b9d60d21b6064820152fd5b85602c6084928988519362461bcd60e51b85528401528201527f546f6b656e436f6e76657273696f6e536572766963653a20546f6b656e206e6f60448201526b1d08185d5d1a1bdc9a5e995960a21b6064820152fd5b505051633ee5aeb560e01b8152fd5b5090346101be575f3660031901126101be57610c5d610e61565b6002549160ff831615610c9d577f5db9ee0a495bf2e6ff9c91a7834c1ba4fdd244a5e8aa4e537bd38aeae4b073aa6020838560ff191660025551338152a1005b9051638dfc202b60e01b8152fd5b346101be575f3660031901126101be577f00000000000000000000000000000000000000000000000000000000000000006001600160a01b03168152602090f35b600435906001600160a01b03821682036101be57565b602435906001600160a01b03821682036101be57565b81810292918115918404141715610d2b57565b634e487b7160e01b5f52601160045260245ffd5b15610d4657565b60405162461bcd60e51b815260206004820152602d60248201525f8051602061104883398151915260448201526c746f6b656e206164647265737360981b6064820152608490fd5b60018060a01b0380911691825f52602060098152604092835f20921691825f528152620151804204835f205403610def57835f5260078152825f20825f528152825f2054935f5260088152825f20915f52525f20548103908111610d2b5790565b5f938452600781528284209184525290205490565b6001600160a01b03165f9081526003602052604090205460ff16158015610e50575b610e4b57610e47670de0b6b3a764000091600460205260405f205490610d18565b0490565b505f90565b50600460205260405f205415610e26565b5f546001600160a01b03163303610e7457565b60405163118cdaa760e01b8152336004820152602490fd5b60ff60025416610e9857565b60405163d93c066560e01b8152600490fd5b91908201809211610d2b57565b60405163a9059cbb60e01b60208201526001600160a01b039092166024830152604480830193909352918152608081019167ffffffffffffffff831182841017610f0957610f0792604052610f1d565b565b634e487b7160e01b5f52604160045260245ffd5b81516001600160a01b03909116915f91829160200182855af13d15610fd8573d67ffffffffffffffff91828211610f0957601f199160405192603f81601f840116011683019383851090851117610f0957610f86936040528252815f60203d92013e5b83610fe4565b8051908115159182610fb4575b5050610f9c5750565b60249060405190635274afe760e01b82526004820152fd5b81925090602091810103126101be57602001518015908115036101be575f80610f93565b610f8690606090610f80565b9061100b5750805115610ff957805190602001fd5b604051630a12f52160e11b8152600490fd5b8151158061103e575b61101c575090565b604051639996b31560e01b81526001600160a01b039091166004820152602490fd5b50803b1561101456fe546f6b656e436f6e76657273696f6e536572766963653a20496e76616c696420a2646970667358221220d141946d4da8fd92931650f185388110e118a43784371a509ae93ee152c7774c64736f6c63430008180033","linkReferences":{}},"methodIdentifiers":{"authorizedTokens(address)":"9bc7c586","conversionRates(address)":"e97116b1","convertToWINR(address,uint256)":"4da8c8f0","dailyConversionLimits(address,address)":"cc6374bd","dailyConversionUsed(address,address)":"9506d66c","emergencyWithdraw(address,uint256)":"95ccea67","getConversionQuote(address,uint256)":"aee3dfdf","getConversionRate(address)":"d3120060","getRemainingDailyLimit(address,address)":"72255ebf","isAuthorizedToken(address)":"6d77d5b6","lastConversionDay(address,address)":"5afd31be","maximumConversionAmounts(address)":"e13f46d9","minimumConversionAmounts(address)":"da5abe2f","owner()":"8da5cb5b","pause()":"8456cb59","paused()":"5c975abb","renounceOwnership()":"715018a6","setDailyConversionLimit(address,address,uint256)":"a9009893","transferOwnership(address)":"f2fde38b","unpause()":"3f4ba83a","updateAuthorizedToken(address,bool)":"a846f46d","updateConversionRate(address,uint256)":"a03b5c04","updateMaximumConversionAmount(address,uint256)":"9e5a0031","updateMinimumConversionAmount(address,uint256)":"62cf677f","wINR()":"3d0657ef"},"id":2}